:020000040800F2
:1050000000C0002091740008E1740008E1740008F9
:10501000E1740008E1740008E17400080000000079
:10502000000000000000000000000000E174000823
:10503000E174000800000000E1740008E174000859
:10504000E1740008E1740008E1740008E1740008EC
:10505000E1740008E1740008315C0008E1740008A4
:10506000E1740008E1740008E1740008E1740008CC
:10507000E1740008E1740008E1740008E1740008BC
:10508000E1740008E1740008E1740008E1740008AC
:10509000E1740008E1740008E1740008E17400089C
:1050A000E1740008E1740008E1740008E17400088C
:1050B000E17400080000000000000000E174000836
:1050C000E17400080000000000000000E174000826
:1050D00000000000E1740008E17400080000000016
:1050E000E1740008E1740008000000000000000006
:1050F00000000000000000000000000000000000B0
:10510000000000000000000000000000E174000842
:105110000000000000000000755C0008E174000859
:10512000E1740008E1740008E1740008E17400080B
:10513000E174000800000000000000000000000012
:10514000E1740008E1740008E17400080D5C0008D7
:10515000E1740008E1740008E1740008E1740008DB
:10516000E1740008E1740008E17400080000000028
:10517000E1740008E1740008000000000000000075
:10518000E1740008E1740008E17400080000000008
:1051900010B590B000F05CFE4022002168460DF092
:1051A000D5F8002400F038FD001B962804D900F043
:1051B0003FFF00F031FD044601F050F8684600F072
:1051C000E1FE002807DD684605F03EF94022002197
:1051D00068460DF0BBF805F09DF8E3E7024BD86890
:1051E000C0F30220704700BF00ED00E0034AD2F890
:1051F000943043F00103C2F894307047001002402D
:10520000024BD3F89400C0F34000704700100240F6
:10521000024A136843F00103136070470010024014
:10522000024B1868C0F34000704700BF00100240F6
:10523000024A136843F008031360704700100240ED
:10524000034A136823F0F00318431060704700BF4F
:1052500000100240034A936823F003031843906050
:10526000704700BF00100240034A936823F4605364
:1052700018439060704700BF00100240044AD2F803
:10528000883023F040631843C2F88800704700BF9D
:1052900000100240034A136823F00703184310600C
:1052A000704700BF00200240034A136823F4C06324
:1052B00018431060704700BF00700040054AD16C71
:1052C0000143D164D36C82B003400193019B02B0CF
:1052D000704700BF00100240054A916D014391657F
:1052E000936D82B003400193019B02B0704700BFF1
:1052F00000100240054A116E01431166136E82B020
:1053000003400193019B02B0704700BF00100240B0
:10531000024A136843F004031360704710E000E092
:10532000024A536823F47F435360704700100240E1
:1053300000207047034AD2F8883023F00303C2F8F4
:105340008830704700100240024A936823F4E063FB
:105350009360704700100240024A936823F0F00304
:10536000936070470010024038B5444CA36D43F081
:105370008053A3650220FFF78DFF414B1B6803F0AC
:105380000703022B03D0AC213E4801F055F84FF43F
:105390000070FFF789FFD4F8983043F00103C4F898
:1053A0009830D4F898309B07FBD5FFF71FFFFFF725
:1053B00027FF0128FBD1FFF72BFFFFF731FF012863
:1053C000FBD1FFF735FFB020FFF73AFFFFF7A8FF4B
:1053D0000020FFF73FFFA56815F00C05FBD1FFF794
:1053E000BBFFFFF7B1FF4FF46050FFF73DFF2648CA
:1053F00003F094FAFFF78CFF234803F09DFAFFF7C0
:1054000099FF2846FFF73AFF4FF08070FFF764FFDF
:10541000A36B43F08073A363A36B23F08073A36338
:105420001A4B5A6822F0E0625A605A6822F0004231
:105430005A605A6822F0405242F000525A605A684C
:10544000120C120442F43B4242F07F025A605A6846
:1054500022F47F0242F408125A601A6822F47C5245
:1054600042F400521A60FFF7B9FEFFF761FF084BE4
:105470000001C0B283F8230038BD00BF0010024015
:1054800000200240D0360108006CDC0200600040C1
:1054900000ED00E028498B6D43F0805310B54FF4C8
:1054A00080608B65FFF700FFFFF7A0FEFFF7A8FE07
:1054B0000128FBD1FFF7ACFEFFF7B2FE0128FBD1BC
:1054C000FFF7B6FE8020FFF7BBFEFFF729FF0020A5
:1054D000FFF7C0FE8C6814F00C04FBD1FFF73CFF13
:1054E000FFF732FF4FF44050FFF7BEFE134803F0C2
:1054F00015FAFFF70DFF114803F01EFAFFF71AFF28
:105500004FF04060FFF7BAFEFFF768FEFFF710FFAD
:105510000B4B0001C0B283F823002046FFF7BAFE10
:10552000084B1B685B0706D040F2AB110648BDE88C
:10553000104000F081BF10BD001002400024F400B4
:1055400000ED00E000200240D036010810B5284CE4
:10555000A36D43F08053A3650120FFF79BFE254B0D
:105560001B6803F00703012B04D040F2BB11224853
:1055700000F062FF4FF48060FFF796FEFFF736FE03
:10558000FFF73EFE0128FBD1FFF742FEFFF748FE82
:105590000128FBD1FFF74CFE9020FFF751FEFFF7EB
:1055A000BFFE0020FFF756FEA36813F00C0FFBD1DF
:1055B000FFF7D2FEFFF7C8FE4FF44050FFF754FE4E
:1055C0000E4803F0ABF9FFF7A3FE0C4803F0B4F963
:1055D000FFF7B0FE4FF04060FFF750FEFFF7FEFD13
:1055E000FFF7A6FE064B0001C0B283F8230010BDF2
:1055F0000010024000200240D036010800366E0143
:1056000000ED00E0012805D010B1022804D0704759
:10561000FFF740BFFFF79ABFFFF7A6BE144A154930
:105620005368154843F4806310B5536002F5D032D7
:10563000124C936D43F080639365114A03F010FCA4
:10564000104B1149012000228861186102204A6034
:10565000886098600D495A60204603F034FD20466A
:105660000B4903F045FD2046BDE8104003F047BD5F
:1056700000700040A80100202C0100209449002067
:1056800044000020304C0020704C0020EC00002032
:10569000A8000020F0B54FF0804495B0002501200F
:1056A000FFF71AFE4FF47A77256101A92046CDE96C
:1056B0000375ADF80450029502F0E2FB236843F055
:1056C00080032360A36823F4A03323F0070301269B
:1056D000A3600CAA602310212046CDE90C36CDE949
:1056E0000E67109502F006FCA369214F23F4806336
:1056F000A3610CAA4FF480712046CDE90D6602F03B
:10570000F9FB7B6823F004037B600CAA4FF4805103
:105710002046CDE90D6602F0EDFB7B6823F4806343
:105720007B60A36823F00803A360A36823F480438D
:10573000A360A36823F43F43A360636823F070036E
:105740006360A36823F08003A3600E22022306A9EE
:105750004FF09040CDE90623CDE90855CDE90A5632
:1057600002F0EFFA23683343236015B0F0BD00BFA9
:105770001800004030B5012085B04FF09044FFF78D
:105780009DFD0220FFF79AFD2268012393FAA3F101
:10579000B1FA81F19940032505FA01F122EA0101EC
:1057A00093FAA3F22160E16893FAA3F0B0FA80F0D3
:1057B00093FAA3F29840B2FA82F205FA00F09A4006
:1057C00021EA000103FA02F20A430C49E2608A6806
:1057D0000F2022F00F0290FAA0F08A6001A80022A8
:1057E00001930292ADF80C308DF80E3003F0D8F82A
:1057F000034B40221A6005B030BD00BF00000140DD
:1058000000E100E030B5044687B01020FFF764FDEA
:1058100045F6C0534BF68030002C18BF1846134C89
:10582000ADF8040000255A2301A92046CDE9025312
:1058300002F026FB236823F080032360636823F0D3
:1058400070036360A36823F08003A360E36843F000
:105850000103E360236843F001032360256162B61E
:10586000034B4FF480025A6007B030BD0010004077
:1058700000E100E008B54FF48020FFF71FFD034A68
:10588000136843F00403136008BD00BF000806500E
:1058900010B54FF4805090B0FFF72CFDE0220223AA
:1058A0000024CDE900230323CDE902346946052312
:1058B0004FF090400494059302F043FA4FF4827144
:1058C0004FF4E063CDE9071301204FF40073CDE9F5
:1058D0000A031023CDE90C34069409940E94064C67
:1058E000072306A920460F9303F02CF8636823F0E2
:1058F0001003636010B010BD0030014010B50446C5
:105900000120FFF7F7FC4FF08050FFF7E5FC2D4A30
:10591000D36823F4E0631B041B0C43F0BF6343F420
:105920000133D360FFF75AFCFFF702FD0001C0B25C
:105930001076FFF753FCFFF7FBFC0001C0B2507676
:10594000FFF74CFCFFF7F4FC0001C0B29076FFF7C4
:1059500045FCFFF7EDFC0001C0B2D077FFF73EFC3D
:10596000FFF7E6FC0001C0B282F82000FFF736FC2A
:10597000FFF7DEFC0001C0B282F82200FFF72EFC28
:10598000FFF7D6FC0001C0B282F82300FFF7F2FE59
:1059900094B14FF48060FFF787FCFFF77BFD4FF475
:1059A0008060FFF781FC2046FFF72CFFFFF762FFC6
:1059B000BDE81040FFF76CBFFFF7D6FCFFF76AFEAB
:1059C000F1E700BF00ED00E0044B5A69002ABFBFB9
:1059D000034A9A6002F188329A60704700200240C0
:1059E0002301674508B500282AD100F0F9F9154BC5
:1059F000154A00280CBF1846104614490B6A20F0BF
:105A0000E06083421BD072B60B69DA03FCD4FFF767
:105A1000DBFF4B695B0041BF0D4BCB6003F14433AF
:105A2000CB600A4B18625A6942F400325A611A6913
:105A3000D203FCD45A6942F000425A6162B608BDF2
:105A40000448DAE7AAF8FFFFCCF8FFFF0020024085
:105A50003B2A1908AAF8FFF708B572B611490B6975
:105A6000DB03FCD4FFF7B0FF0B690B614A6922F43A
:105A7000FF6222F007024A614B6943EAC00343F028
:105A800002034B614B6943F480334B61054B1A6948
:105A9000D203FCD41A695A6922F007025A6162B62D
:105AA00008BD00BF0020024030B572B60C490C465C
:105AB0000D69ED03FCD40D690D614D6945F00105DB
:105AC0004D61026043602369DB03FCD42369012339
:105AD0002361636923F00103636162B630BD00BFD7
:105AE000002002402DE9F3411546164A1369DB03F5
:105AF000FCD4FFF769FF20F007002C4646194F1928
:105B00002B1B9D42A6EB040802D802B0BDE8F08131
:105B1000082C2246A7EB040128BF082268460CF097
:105B2000FBFB072C06D8C4F10802FF210DEB040093
:105B30000CF00CFCDDE900234046FFF7B5FF083C04
:105B4000DEE700BF00200240F7B56FF00306104CFF
:105B5000031D361A0844F218914201D803B0F0BD73
:105B60006268D207FCD5A2680192626812F0660FE3
:105B700002D001200CF06AFB01AD1A1F8242EDD069
:105B800015F8017B02F8017B9A42F7D10433E2E772
:105B9000000806501D2893BF024B00EB8000400018
:105BA000185C704700000020014610B5C0F30740A4
:105BB000FFF7F0FF0246C1F30720FFF7EBFF0446B3
:105BC000C8B2FFF7E7FF642358434FF080415A43C0
:105BD000000A6343C0F57A701B0A8863C3F57A73C1
:105BE0004FF4C060B2FBF0F2C2F57A72CA630B6484
:105BF00010BD4FF090431869C04300F0010070479A
:105C0000014B1870704700BF68020020014801F086
:105C1000B9BD00BFB04C0020034B044A5B6A126858
:105C20005A2000FB02307047001000405402002050
:105C300008B50B4B5A695A610A4B1A680A4B9A42CB
:105C40000DD1FFF7E9FF09490A68801A192803D91D
:105C5000FFF7E2FF064B1860FFF7DEFF086008BDA4
:105C60000004014020000020F35B00085C020020DB
:105C70006002002038B5204B00221A611F4A1368C9
:105C800001331360FFF7C8FF1D4B1B68C01A5A2869
:105C900005D91C4B186810B140B204F06FFB1A4BC9
:105CA0001A681A4B9A421CD1002001F095FB00BBE8
:105CB000012001F091FB051C18BF0125144CFFF7D2
:105CC000ABFF2268801A19280BD912490A7822B929
:105CD0001DB1FFF7A1FF104B1860FFF79DFF20607B
:105CE0000D700E4B1B68012B05D1BDE8384000F04C
:105CF0004FBD0125E2E738BD0010004054020020EE
:105D0000640200205802002020000020635D00088B
:105D10005C020020AA020020600200205002002045
:105D200038B5044672B6FFF777FF064B186062B6C7
:105D3000054D2CB12B68A34202D060B204F01EFBCB
:105D40002C6038BD640200205802002010B50146C6
:105D5000FFF762FF0446FFF75FFF001B8842FAD39C
:105D600010BD08B5002001F037FB68B15F20FFF7D8
:105D7000EDFF002001F030FB60B9012001F02CFBA9
:105D8000003018BF012004E0012001F025FB0028AD
:105D9000ECD108BD0120FCE7BFF34F8F0549064B4E
:105DA000CA6802F4E0621343CB60BFF34F8F00BFB9
:105DB000FDE700BF00ED00E00400FA0510B501F0BA
:105DC00021FB044C20B101F0B3FA034B236010BD5A
:105DD000024BFBE720000020635D0008F35B000836
:105DE000044BD3E90802044B9A420CBFC0F34000B5
:105DF0000020704700880308791E55AA10B50C4C86
:105E0000ADF5006D21464FF4006268460CF084FA4F
:105E1000089B712043F002030893FFF71DFE4FF427
:105E2000006269462046FFF75DFE0DF5006D10BD6E
:105E300000880308014B1868704700BF500200201B
:105E4000024B1B780BB9FFF7E9BB7047A902002092
:105E5000F0B5012091B0FFF751FD01F0D3FA3A4CB3
:105E600010B901F0EFF820602368384C012B50D1B5
:105E70002370374B374A1A60FFF7E2FF04F048FA05
:105E800006F0BEF8344B5A6A344B9A423CD0344B3D
:105E900031491B6ADBB2AA2B4FF02002684619BFBA
:105EA00025A7D7E9006726A7D7E900670CF034FAE1
:105EB0007120FFF7D1FD202269462748FFF712FE27
:105EC000284B08AA03F1200C154618685968144697
:105ED00003C4083363452246F7D120226946284689
:105EE0000CF0FEF9E8B9204B20481C88002322461C
:105EF000FFF7DAFD1E4922461E48FFF7F3FD324642
:105F00003B461D48FFF7D0FD0020FFF76BFD11B0A9
:105F1000F0BD0020FFF7F2FC00232370FFF74EFFD7
:105F2000AAE7164B11481C8800232246FFF7BCFD48
:105F300022461349E0E700BF02000000791E55AA7F
:105F400000000000791E55AA50020020A90200207E
:105F500020000020F35B000800880308791E55AA82
:105F600000200240DB360108FC39010828880308BC
:105F70000D3701083088030820880308063D010812
:105F8000FE39010810B5044600F09CFA18B120460D
:105F900000F078FA402010BD08B5402200210948E1
:105FA0000CF0D4F90748FFF7EDFF002808DD05489D
:105FB00004F04AFA91284FF0FF3018BF002008BDC6
:105FC0000020FCE76902002038B50446FFF724FEF4
:105FD000084D0444FFF720FE844209D30120FFF757
:105FE000B5FEFFF7D9FF20B92B6898470028F1D1FB
:105FF000002038BD20000020054902460B8803F030
:106000003003302BFAD040238121024803F047B8F7
:106010000468004094490020034B0A221A60034B95
:1060200000221A60704700BFB4020020B8020020AE
:1060300038B5204B204C1B689847204A21681368CC
:1060400039B3013B9D1E0C2D136007D9B1FA81F1C4
:1060500049090F2B21601ED90F231360184C2368A8
:10606000EBB1FFF7D9FD17490B68C01A78280FD993
:10607000FFF7D2FD144B08601868421C10F00100B5
:1060800018BF70201A60FFF78FFD2368013B236063
:1060900038BD0133D6E7002BE0D10123DDE71368DB
:1060A000DA0020B11046BDE83840FFF77DBDD802C8
:1060B000F9E700BF20000020B002002024000020EB
:1060C000B4020020B8020020BC02002010B5044633
:1060D0007F20FFF7C1FC2146D0220648FFF702FDD2
:1060E0007E20FFF7B9FC2146D0220348BDE81040CE
:1060F000FFF7F8BC00F8030800F003081FB50446DA
:10610000D0220E490CF008F92378A52B10D01022CC
:106110000B4968460CF000F99DF80030A52B0AD118
:10612000D022074920460CF0F7F82046FFF7CEFFB3
:10613000012004B010BD0020FBE700BF00F80308F9
:1061400000F0030830B5424D2B685A1C85B0044658
:1061500035D002930023039344B9012101A8FFF72E
:10616000F3FC9DF8044004F00F0401340021039A6D
:106170000D46AB0003F1006303F57A331B68581C2E
:1061800028D101B10392DDE902325ABB1B0201336F
:106190007D200393FFF760FC042203A92D48FFF73D
:1061A000A1FC029B7C2001330293FFF755FC284899
:1061B000042202A9FFF796FC039805B030BD012325
:1061C0007C200293FFF748FC042202A92846FFF72F
:1061D00089FCBFE70235B5F5007F1A464FF0010193
:1061E000C7D1CFE7B4F5807F98BFA4180394240AE1
:1061F0009C4208D97C200294FFF72EFC042202A9BD
:106200001348FFF76FFCB5F5007F0FD1039B1B0A06
:1062100001337C200293FFF71FFC042202A90C48E3
:10622000FFF760FC7D20FFF717FC002505F10070EB
:1062300000F57A400422800003A9FFF753FC064BC7
:1062400003981A68904200D1FEE71860B5E700BFD6
:1062500000E0030800E80308AC020020024B1B68C2
:106260000BB100F09FBE704750020020F8B5214BE3
:1062700019680129054638D01F4B1B78002B36D1F1
:106280001E4C236823BB1E481E4EFFF78DFCFFF7F4
:10629000C3FC2F18FFF7C0FC87420AD30120FFF789
:1062A00055FDFFF779FE0146F8B933689847002895
:1062B000F0D02846FFF788FE0146B0B92368A3B1A5
:1062C000FFF7AAFC2368C01AB0F5FA6F0DD206E0FA
:1062D000FFF7A2FC2368C01AB0F5FA6FD3D22846A4
:1062E000FFF772FE0023236001210846F8BD02215A
:1062F000FBE700BF5002002068020020600200207F
:106300002035FF002000002008B5FFF71DFC01200C
:1063100008BD10B5722420460134E4B2FFF79CFB9F
:106320007C2CF8D110BD322070474FF4B47250432A
:10633000C30A092B08D803F58033723300F4FF60D9
:1063400000EBC320FFF7CEBB70474FF4B47250434D
:10635000C30A092B10B40C460BD803F5803300F4A4
:10636000FF617233204601EBC3215DF8044B0BF053
:10637000D3BF5DF8044B70472DE9F0414FF4B4777B
:1063800007FB00F6F50A092DADF5006D88461BD810
:1063900005F580307230C4024FF400622146684631
:1063A0000BF0ACFF06F4FF603A46414668440BF040
:1063B000A5FF05F17200C0B2FFF74EFB4FF400627B
:1063C00069462046FFF78EFB0DF5006DBDE8F081B4
:1063D0000A4B4CF6CC421A6045F255521A60002224
:1063E0005A6040F6FF721A614FF4FA629A60DA68F6
:1063F0005207FCD14AF6AA221A60704700300040CA
:106400000B4B10B50246044603F1100153F8040B80
:1064100042F8040B8B42F9D1064B1B6813B1892358
:10642000237010BD00F0EEFF0028FAD09823F7E7A4
:10643000FC36010850020020FEE70000F8B50E4DC2
:106440002E68632E014613DC0C4F0D483C68402239
:1064500000EB84100BF060FF0134632CC8BF0023F5
:1064600006F10106D4BF3C603B602E600020F8BD01
:106470004FF0FF30FBE700BFC4020020C81B002024
:10648000C802002010B50C4C0C4B2168402203EBD5
:1064900081110BF041FF0A4B1A68002A09DD2168BF
:1064A00001316329C8BF0021013A21601A60002030
:1064B00010BD4FF0FF30FBE7C0020020C8020020F3
:1064C000C4020020014B1868704700BFC4020020BE
:1064D0000048704700880308014B188D704700BFC3
:1064E000008803081D4B1E491A8D10B504460BF099
:1064F00013FF0A221B4904F2C6200BF0F1FE60BB19
:10650000FFF798FCA8B1892384F8A232164B04F156
:10651000AC0203F1140153F8040B42F8040B8B4254
:10652000F9D11249422204F2C520BDE810400BF017
:10653000E5BE00F067FF80B1982384F8A2320C4BCF
:1065400004F1AC0203F1140153F8040B42F8040BFC
:106550008B42F9D142220749E5E710BD00880308C4
:1065600030880308083D0108133D0108283D010853
:106570006B3D0108803D010810F0040F0CBF0123A2
:106580000223020748BF013318467047034B00221D
:106590001A6020221A7001229A707047CC1B0020CA
:1065A00070B5114D2B7813F0020F04462E4605D01E
:1065B0000A2000F081FD2870012070BDFFF72CFB40
:1065C0000444FFF729FB844201D80020F5E70A20A4
:1065D00000F072FD10F0060F30704FF00100ECD1AA
:1065E000FFF7B4FBEDE700BFDE2300202DE9F04309
:1065F0001F46002389B03B60064688469146FFF758
:106600000BFB174C0644FFF707FB864201D800201E
:106610001FE025786A0704D40A2000F04DFD0546E6
:1066200020700C2000F048FD43B2002B14DD6B07F6
:1066300012D500F01F042146684600F06DFD4C4560
:106640002246A8BF4A463A60694640460BF056FECD
:10665000012009B0BDE8F0830120FFF777FBD2E706
:10666000DE23002038B50D460446042000F0C0FDAE
:10667000202D2946204628BF202100F063FD082058
:10668000BDE8384000F0B4BD70B588B01E4600F0DB
:106690000F038DF80030124B1B788DF8013000236A
:1066A00014468DF80230FFF767FF054624B119B193
:1066B000224668440BF022FE631908AA02341344F0
:1066C0002C44320AE1B2684603F8202C03F81F6C10
:1066D000FFF7C8FF0120FFF763FF08B070BD00BFE0
:1066E000DD2300201D2A01D8FFF7CEBF0020704710
:1066F00000220B461146FFF7C7BF6123FF29037035
:1067000086BF00234370417070470000034A002396
:106710001370034A1370034A13607047D11B0020A3
:10672000D01B0020D41B002070B5164D2C788AB0E9
:1067300034BB154E337863B9144B02211B88ADF876
:10674000083002A80124FFF78DFF347020460AB0FC
:1067500070BD01AB202202A9FFF748FF10B9012349
:106760002B70F3E7019B022BF9D19DF80830F22B37
:10677000F5D19DF80930012BF1D134700446E5E7DD
:106780000024E3E7D01B0020D11B0020C33D0108FB
:1067900038B5084D2C685CB1FFF73EFA04F59674E5
:1067A000844205D80A20FFF7BFFFFFF735FA2860BB
:1067B00038BD00BFD41B00201FB5194B00F00F02DD
:1067C00000095A7024D110221A7042F20E23ADF83B
:1067D0000030C0238DF80230124B1A68CDF8032028
:1067E0005A68CDF8072068461A899B7AADF80B20C5
:1067F0000E218DF80D30FFF735FF0A20FFF7D0FE90
:1068000058B9022000F0F4FC012005B05DF804FB4B
:1068100001280CBF18222022D6E70020F5E700BF90
:10682000CC1B0020E73D010830B589B004461E228C
:106830000D460DF1020000210BF088FD2046FFF708
:106840009BFE0D4A9378B3FA83F35B0993700B4B6D
:1068500004F00F0444F0A0041B788DF800400146BA
:106860008DF801301DB944F010048DF800406846E1
:10687000FFF7F8FE09B030BDCC1B0020DD2300205F
:106880002DE9F04F95B01446884600F00F07FFF74A
:1068900073FE1F2C0646DFF810911DDC99F800509E
:1068A0001E2200210DF12E000BF050FD8DF82C70F2
:1068B0008DF82D5044B1B8F1000F05D00BAB224636
:1068C000414698190BF01AFD3119C9B20BA8FFF710
:1068D000C9FE15B0BDE8F08FC0F12003002500937C
:1068E0000BABAA4603EB000B009A8DF82C70631BD0
:1068F0009342A8BF134699F800208DF82D2008EB8D
:1069000005011A46584601938DF82EA00BF0F6FCAF
:10691000019B1D44A542B8BF9DF82C2006EB030146
:10692000B8BF42F010020BA8C9B2B8BF8DF82C2036
:10693000FFF798FE0520FFF733FE0028C9D09DF829
:106940002C30D8062AD52022002103A80BF0FEFC0B
:1069500002AB202203A96420FFF748FE0028B8D02C
:106960009DF80C3003F0E202A22AB2D1D90604D578
:1069700001211846FFF758FFABE718460193FFF7D0
:10698000FBFD029A9042A4D19DF82C20019B5A4015
:10699000D20703D403F0F603A22B9AD0A54287F0C6
:1069A0000107A1DB95E700BFDD230020F8B5144DFA
:1069B00007460020286013480124FF2A0E46047071
:1069C00000DD2BB131463846BDE8F840FFF758BF2F
:1069D000A2F1FD040C482C60FD220BF09DFC214629
:1069E0000A48FFF78AFE3846FF220749FFF748FFAB
:1069F0002A68054806F1FD01BDE8F8400BF08CBCA3
:106A0000D8230020DC230020D81B0020D51C002028
:106A100010B40C469C42114612DC127802F0F002CF
:106A2000A02A09D1042C0FDD9C422246A8BF1A4699
:106A30005DF8044B0BF054BC9C4205D12246F7E7AD
:106A40000A205DF8044B70470B20FAE738B5144A6A
:106A5000082304460D46FFF7DBFF18B90520114B4C
:106A6000D87038BD0723104A29462046FFF7D0FFCB
:106A700008B90120F3E702230C4A29462046FFF714
:106A8000C7FF08B90320EAE70223094A294620463E
:106A9000FFF7BEFF08B90420E1E70020E1E700BFEF
:106AA000C53D0108CC1B0020CE3D0108FF3D01087B
:106AB000023E01082DE9F0411378ADF5805D13F039
:106AC0007F0782B005460E46144604D04FF4DC41E1
:106AD000FFF70EFE8EE05378102B00F0D78012D80F
:106AE000022B00F0BE80032B00F09080012B10D110
:106AF000944BDB78052B0CD19388402B00F09480CD
:106B00004FF4CE41E4E7B02B00F0F68004D8A42B7C
:106B100062D04FF4DA411EE0C02B16D0EE2BF8D134
:106B20009288042AF5D18849D4F806000BF0D8FBE6
:106B30000028EED14FF410412846FFF7D9FD14206C
:106B4000FFF704F9FFF728F9FEE793780BB9D3783C
:106B50001BB146F686212846BAE7D2F80A607B4B7D
:106B600036F480721C68984608D0A64206D9FF2CDD
:106B700000F2868004F5CE4189B2ECE7FF220021C5
:106B800001A80BF0E3FB002E08BFFD26A642374606
:106B900028BF27463A466E4901A80BF0AFFBA64234
:106BA00018D201ABE11BD819FFF7A7FD02223A4426
:106BB00001A92846FFF764FED8F800206448D21BDC
:106BC000C119C8F800200DF5805D02B0BDE8F041A4
:106BD0000BF0A2BB0022EAE79188D2F80600FFF78B
:106BE00035FF05280BD14FF410430622594928469A
:106BF000FFF778FD0DF5805D02B0BDE8F08110B1C2
:106C00004FF41041A7E746F68221A4E74D4BDB780D
:106C1000052B7FF47EAF9288D4F8061002AF01AB4B
:106C2000304603F071FA14E0FFF704F9012801D1AE
:106C3000FEF7E8FC01ABA288D4F80610304603F05A
:106C400063FAFFF7F7F8012802AF02D10020FEF740
:106C5000D9FCA37BB7F8FE2F01A92846FFF7A6FEB3
:106C6000C8E7384BD87805287FF453AFD4F806101E
:106C7000928891F8403041339A4204D0FFF766F889
:106C80004FF4CE4167E702AF01ABC9E72D4BDB788C
:106C9000052B02D04FF4DA411AE70120FEF7B0FFCE
:106CA00001A805F0A1F901AAA188D4F8060005F011
:106CB000CDFC8046384602AEFEF7A2FFB8F1000FC9
:106CC00018D1B6F8FE2F01A9F01E0BF025FBB6F87F
:106CD000FE3F0333A6F8FE3FB6F8FE2F06F8048CFD
:106CE00001AB1344902103F8021C002103F8011C9E
:106CF000A37BB1E70323EDE7124BD2F80A20DB7840
:106D0000032B92B204D0042B11D046F68221DFE689
:106D1000531E9BB20F2B28BF0F220F494FF4104375
:106D2000D2B2FFF7DFFC0A20FFF73AFC62E7531EFE
:106D30009BB2142B28BF14224FF41043D2B2074940
:106D4000EFE700BFCC1B0020FA3D0108D82300204C
:106D5000D81B0020F33D0108D83D01082800002081
:106D60002DE9F043054685B000782B4C0E46FFF721
:106D700003FC237880462F1833B17B78C02B1FBFCC
:106D8000264A002313602370A6EB08016A463846A2
:106D900002F014FF014628B12878FFF7A9FC05B0DE
:106DA000BDE8F083237883BB15F80830DFF86C90DA
:106DB000DB06D9F8004015D53119B1F5006F02D9BD
:106DC0004FF4CE41E8E7BDF804601548DDF8061041
:106DD0002044324634440BF09FFAC9F800404FF487
:106DE0001041D9E78CB1DDF80610BDF80420081970
:106DF0000BF092FA22460A49DDF806000BF08CFAF5
:106E0000BDF804301C44ADF804406A463946287881
:106E1000FFF750FEC3E700BFDC230020D82300208B
:106E2000D81B0020034B044800214FF480621960F6
:106E30000BF08CBAE0270020DF2300202DE9F0477B
:106E400006460C46002900F0A280057805F0F00304
:106E5000D02B0DD14378112B4FF0010106D183784F
:106E60001C0703D1BDE8F047FFF7FCBB4948F9E731
:106E700005F0C203022B5CD12846FFF77DFB2907F2
:106E800044BF454B7278DFF818A148BF1A7015F05F
:106E9000100F0746DAF80080D1461DD004EB080336
:106EA000B3F5806F06D94FF4DE412846BDE8F047C0
:106EB000FFF71EBC844209D9241A311837482246EC
:106EC000404444440BF01AFACAF8004030780121DB
:106ED000BDE8F047FFF7A8BCB8F1000F22D084420C
:106EE0002E4D09D9241A22463118444405EB0800D6
:106EF0000BF004FACAF80040D9F8004027492246AE
:106F0000E8190BF009FA31463A4624480BF004FA26
:106F10003919C9F800102148FFF722FFBDE8F047F2
:106F2000FFF780BF314622461C480BF0E7F92146A7
:106F3000F1E705F0E202A22A07D12A0742BF164B69
:106F400042781A7001212846C2E7C22B1FD115F0E2
:106F5000300F19D12846FFF70FFB2B0742BF0E4B0E
:106F600072781A7001463046FFF77CFB0220FFF76B
:106F700017FB102000F03CF9FFF708FBFFF752FF6A
:106F8000BDE8F047FFF7C2BB46F685118DE7BDE8C7
:106F9000F08700BFD63D0108DD230020DF2300205D
:106FA000E027002010B590B008A800F097F8234B18
:106FB0009DF82A2019781A709DF8243003F03803C0
:106FC000302B03D00024204610B010BD100601D491
:106FD0000A0601D5FFF7DAFA9DF82A3019434B0764
:106FE000F0D59DF82C4063B2002BEBDD04F01F04BC
:106FF0002146684600F090F8002CE3D09DF8003060
:10700000502B17D006D8262BDDD021466846FFF737
:1070100015FFD8E7522BD6D0E02BF6D19DF8010012
:10702000FFF7CAFB064B01229A70FFF7FBFEFFF742
:107030006DFBC8E7102000F0DBF8C4E7DE2300207A
:10704000CC1B002038B5FFF7A1FA00F0DDF80446AC
:10705000FEF7E2FD0546FEF7DFFD401B092806D9D5
:1070600000F00AF9002C18BF0224204638BDFFF7B3
:1070700099FF0028EFDD0124F7E70000064B1A46D0
:10708000996811F4C05FFBD118739368DB07FCD5D6
:10709000D068C0B2704700BF0030014010B50C4648
:1070A000FFF7ECFF2046FFF7E9FF024B01229A6150
:1070B0009A6210BD0004004808B500F01F0040F0BF
:1070C0002000FFF7DBFF0020FFF7D8FF024B012273
:1070D0009A619A6208BD00BF0004004838B50C4BA5
:1070E00004469A68D20701D5DA68FAE72420FFF748
:1070F000C5FF251D0D340020FFF7C0FF05F8010B6B
:10710000A542F8D1034B01229A619A6238BD00BFB3
:10711000003001400004004838B50446A0200D4668
:10712000FFF7ACFF2544AC4204D1054B01229A6124
:107130009A6238BD0020FFF7A1FF04F8010BF2E7C7
:107140000004004838B5044680200D46FFF796FF3E
:107150002544AC4204D1054B01229A619A6238BDA4
:1071600014F8010BFFF78AFFF3E700BF00040048A3
:1071700038B505467F200C46FFF780FF680000F019
:10718000FE00FFF77BFF0020FFF778FF2070002054
:10719000FFF774FF60700020FFF770FFA070002001
:1071A000FFF76CFF024BE07001229A619A6238BDD2
:1071B0000004004838B5054640200C46FFF75EFF46
:1071C000680000F0FE00FFF759FF2078FFF756FF38
:1071D0006078FFF753FFA078FFF750FFE078FFF7E4
:1071E0004DFF024B01229A619A6238BD00040048AB
:1071F00008B540F0C000FFF741FF024B01229A6141
:107200009A6208BD0004004838B5194C0120226874
:1072100090FAA0F1B1FA81F190FAA0F30325814030
:10722000B3FA83F305FA01F1834022EA010200FA7E
:1072300003F3134323600F4BA0611A6822F002028C
:107240001A601A6802431A605A6842F480525A60FF
:107250001A6842F040021A60A062FEF777FD1C2017
:10726000FFF72AFFA0F114035842584138BD00BF70
:10727000000400480030014037B51C20FFF71CFF18
:1072800001A90020FFF774FF01A97E20FFF770FF1E
:107290009DF80430442B06D19DF805301BB99DF8AC
:1072A0000630202B13D01F4C1F4B019301A97E20C9
:1072B0000125FFF77FFF0A20A561FEF747FD0A20A1
:1072C000A562FEF743FD01A97E20FFF751FF01A94A
:1072D0007F20FFF74DFF9DF80430052B03D19DF86B
:1072E0000530402B1BD005210220FFF7D7FE0D4CA7
:1072F00040210320FFF7D2FE01250C4B019301A989
:107300007F20FFF757FF0A20A561FEF71FFD0A2027
:10731000A562FEF71BFD01A97F20FFF729FF03B03F
:1073200030BD00BF0004004844002000054080003C
:10733000F0B5184A184F936C43F4803387B09364C8
:1073400002243023CDE900340023CDE90233049335
:107350006946092338460593402500F0F2FC0126D2
:10736000694638460095039600F0EBFC0B4B0C4A3F
:107370001E6019680A431A606FF070021A611D627C
:107380001C635A6822F003025A6003229A6007B015
:10739000F0BD00BF00100240000400480040024061
:1073A000C0400279074B1A6822F002021A600322D9
:1073B0009A601A6822F010021A601A6842F00202FB
:1073C0001A60704700400240024BDA68D207FCD5D1
:1073D000DB6870470040024008B5094958B10128F0
:1073E0000CD0FFF7DFFFFFF7EFFF886B2C288CBF77
:1073F0000020012008BD10238B62F2E72023FBE769
:107400000040024070B5204D2B78002B3AD11F4A26
:107410000223106893FAA3F1B1FA81F10324490021
:1074200004FA01F120EA010193FAA3F01160D06897
:1074300093FAA3F1B1FA81F193FAA3F3B3FA83F3C8
:10744000490004FA01F101265B0020EA010106FA75
:1074500003F30B43D36000BF00BF00BF00BF106940
:1074600080F00200C0F340002870D16896FAA6F3BD
:10747000B3FA83F3B3409C4021EA040496FAA6F6DB
:10748000D46070BD0120FCE7E42700200004004820
:10749000DFF834D000F026F8002103E00B4B5B58F6
:1074A000435004310A480B4B42189A42F6D30A4A19
:1074B00002E0002342F8043B084B9A42F9D30AF059
:1074C000EBFEFDF765FEFEE700C000201C4A010848
:1074D0000000002050020020500200201071002007
:1074E000FEE700000E4AD2F8883043F47003C2F879
:1074F00088300C4B1A68002042F001021A60986034
:107500001A6822F0A85222F410221A604FF4805216
:10751000DA601A6822F480221A609861FEF772B865
:1075200000ED00E0001002402DE9F041044686B075
:10753000002869D090F8293403F0FF021BB980F8C5
:10754000282401F097FC2546032355F8100B84F8F6
:10755000293400F030FE0FCD6E460FC62B68336025
:1075600004F1040898E80E00206800F013FE0021E2
:10757000206800F02AFE00212246234604F110056F
:107580000126084683F82810D98601310F2983F88F
:10759000296083F82B00C3E90E00186403F120036F
:1075A000F0D100231F4682F8283201330F2B82F8D6
:1075B000297282F82B72C2E98E77C2F8407202F10A
:1075C0002002F0D10FCD6E460FC62B68336098E8CD
:1075D0000E00206800F0FBFD012384F8247084F87D
:1075E0002934E369012B02D1204600F095FB236A80
:1075F000012B02D1204600F07DFB206801F08AF8C3
:10760000002006B0BDE8F0810120FAE790F82834A8
:10761000012B10B504460CD0012380F828340068F3
:1076200001F070F8206800F0BCFD002084F8280408
:1076300010BD0220FCE790F82824012A10B504466A
:107640000BD0012280F8282484F82410006801F06F
:1076500053F8002084F8280410BD0220FCE770B520
:1076600001F00F06044611F0800F4FEA4610054660
:107670001ED0254400F128010120214485F829006D
:107680000A614A780E70CB7002B1CE81022B04BF22
:1076900000230B7194F82834012B11D0012384F8B6
:1076A0002834206800F0B0FD002084F8280470BD64
:1076B000254400F50A710020214485F82902DFE7FE
:1076C0000220F4E710B5044601F00F00430111F069
:1076D000800F1A4615D0224403F1280101232144CA
:1076E00082F82930087094F82834012B11D0012336
:1076F00084F82834206800F0DFFE002084F8280495
:1077000010BD224403F50A710023214482F8293276
:10771000E8E70220F4E770B501F00F0100EB411635
:107720004C01002586F8281204F50A710144C6F8B8
:107730003C22C6F84032C6F8445286F82952006806
:1077400001F004F8284670BD01F00F0100EB411173
:10775000B1F84402704770B501F00F0100EB41151C
:107760004C012B640026012385F8281004F1280120
:107770000144EA636E6485F82930006800F0E6FF92
:10778000304670BD2DE9F84F0446006800F0CAFF8E
:10779000000409D5DFF854A4DFF854B42068B0F829
:1077A00044301A0400F1CB80206800F0BBFF410593
:1077B0000FD52268B2F8443023F480631B041B0CFD
:1077C0002046A2F8443001F0A8FB00212046FFF734
:1077D00032FF206800F0A6FF430408D52268B2F803
:1077E000443023F480431B041B0CA2F8443020686F
:1077F00000F098FF870408D52268B2F8443023F4DB
:1078000000531B041B0CA2F84430206800F08AFFD0
:10781000C60426D52268B2F8403023F004031B04C6
:107820001B0CA2F84030B2F8403023F008031B04D0
:107830001B0CA2F8403094F86034012B05D10021D4
:1078400084F86014204600F07BFA204601F073FBB8
:107850002268B2F8443023F480531B041B0CA2F8B6
:107860004430206800F05EFF05051BD52068B0F8A5
:10787000403043F00803A0F84030B0F8443023F41F
:1078800000631B041B0CA0F84430B0F8403043F0F8
:107890000403A0F8403000F045FFC00402D42046A5
:1078A00001F048FB206800F03DFF010626D5236863
:1078B000B3F8442022F080021204120CA3F84420F2
:1078C00094F86024002A40F08A81B3F8402042F006
:1078D0000402A3F84020B3F8402042F00802A3F8C5
:1078E0004020B3F854309B08012103F03C0384F896
:1078F0006014C4F86434204600F022FA206800F0D6
:1079000011FF82050BD52268B2F8443023F40073CE
:107910001B041B0CA2F84430204601F0FAFA206840
:1079200000F000FFC30508D52268B2F8443023F404
:1079300080731B041B0CA2F84430BDE8F88FB0F82C
:10794000441089B211F00F0740F0A18011F010012E
:10795000038827D10AEA03030380B0F8502094F883
:10796000283000F202401044E26B30F83330C3F3A9
:10797000090363641344E363204601F0C3FA94F8F7
:107980002430002B3FF40AAF226C002A7FF406AFAC
:1079900094F82430216843F08003A1F84C3084F837
:1079A0002420FBE69BB21A051DD5B0F8501094F8C0
:1079B000282200F206430B4404F5866133F8323086
:1079C000B4F82E22C3F30903C4F8443200F08CFF4C
:1079D0002268138823F070031B051B0D13802046BB
:1079E00001F078FADAE61F047FF5D8AE038823F0B9
:1079F00070031B051B0D0380B0F8501094F828226B
:107A000000F206430B4433F83230C3F30903C4F8E1
:107A1000443263B1B4F82E22D4F83C1200F064FF73
:107A2000D4F83C32D4F844221344C4F83C32002148
:107A3000204601F055FA2268D4F83832B2F85010D6
:107A400002F2064589B253B96B5A23F440639B0492
:107A50009B0C6FEA43436FEA53436B5207E03D2BA5
:107A600010D85808DE0748BF0130800268521388DA
:107A70000BEA030383F4405343F4004343F08003D1
:107A800013808BE658485B0940EA8323E5E73EB262
:107A900030F826901FFA89F919F4004F3DD030F8DC
:107AA000263023F070031B051B0D4FEA471820F802
:107AB000263004EB080191F83432002B53D1B0F892
:107AC000505091F8282200F206432B4433F83250EC
:107AD000C5F3090535B1B1F82E22D1F83C122B4679
:107AE00000F002FF04EB461304EB0801D3F8442234
:107AF0002A44C3F84422D1F83C222A44C1F83C224B
:107B0000D3F840321BB1D1F8380285425ED2A0448E
:107B1000204698F8281201F0E3F919F0800F3FF49D
:107B20003DAE236833F826200AEA020223F8262015
:107B300004EB4717B3F8501097F8282003F20243DC
:107B40000B4404EB461633F83220C2F30902726488
:107B5000FB6B97F828101A44FA63336C2046DBBBA2
:107B600001F0D0F91AE691F8283230F82350DA0003
:107B7000B0F850306D04034413441DD5B3F80254DB
:107B8000C5F3090535B1B1F830222B46D1F83C12C6
:107B900000F0AAFE04EB0803226893F8281232F8DA
:107BA000213023F4E04323F0700343F4004343F017
:107BB000C00322F8213095E7B3F80654C5F3090550
:107BC000002DE7D02B46B1F83222DFE791F82812DA
:107BD0002046FFF7A0FDA0E7FFF7BDFDDEE520464C
:107BE00001F0A8F98AE600BF0080FFFF0F8FFFFFBA
:107BF0008FBFFFFF38B5436801F00F059D42044673
:107C00002DD811F0800F4FF020031ED000EB45124D
:107C100003FB05030121283382F8291001229A7001
:107C20001D7094F8281491421BD084F8282419461A
:107C3000206800F007FD25B904F58661206800F092
:107C400074FD002084F8280438BD03FB010300EB19
:107C50004111002203F50A7381F82922DEE7012091
:107C6000F2E70220F0E738B5044601F00F00636840
:107C7000984224D8430111F0800F1A4617D02244AD
:107C800003F128010123214482F8293000258D7059
:107C9000087094F82834012B13D0012384F8283479
:107CA000206800F0EBFC84F82854284638BD2244B4
:107CB00003F50A710023214482F82932E6E7012006
:107CC000F4E70220F2E711F0800F1BBF01F00F0173
:107CD00000EB411000EB4110283008BF00F50A709E
:107CE00099B21AB90273C180002070470122027351
:107CF0008360F9E703680122C0F86C24B3F85820C8
:107D000042F00102A3F85820B3F8582042F00202D2
:107D1000A3F8582000207047036802460121C0F8EC
:107D20006814002082F86004B3F854200A43A3F8D2
:107D30005420B3F8542042F00202A3F854207047B4
:107D400070472DE9F04F0A6892FAA2F44D68B4FA30
:107D500084F405F1FF3C4FF0010803264FF00F0EAD
:107D600032FA04F30CD1BCF1010F06D84368C9689C
:107D700023EA02034A43134343600120BDE8F08F26
:107D800008FA04F3134062D0D0F800A093FAA3F9E4
:107D9000B9FA89F993FAA3F7B7FA87F74FEA4909CD
:107DA00006FA09F97F002AEA090905FA07F749EAFC
:107DB0000707BCF1010F076016D8876893FAA3F98B
:107DC000B9FA89F993FAA3FA4FEA490906FA09F9C7
:107DD00027EA0909BAFA8AFA8F684FEA4A0A07FAC3
:107DE0000AF749EA07078760C76893FAA3F9B9FA5F
:107DF00089F993FAA3FA4FEA490906FA09F927EA39
:107E00000909BAFA8AFA0F694FEA4A0A07FA0AF721
:107E100049EA0707022DC76019D1FF2BD1F814904A
:107E200017D8D0F820A093FAA3FBBBFA8BFB93FAE8
:107E3000A3F7B7FA87F74FEA8B030EFA03F3BF00F5
:107E40002AEA030309FA07F943EA09030362013442
:107E500086E7476A1B0A93FAA3FABAFA8AFA93FAF0
:107E6000A3F3B3FA83F34FEA8A0A0EFA0AFA9B00E5
:107E700027EA0A0709FA03F947EA09074762E6E72A
:107E80001A4A0368904210B502D0B0F1804F09D170
:107E90004C6823F07003904243EA040309D0B0F128
:107EA000804F06D0124A904203D002F58062904281
:107EB00003D1CA6823F44073134303608B68C36221
:107EC0000B888362094B984207D003F5A053984270
:107ED00003D003F58063984201D10B7C03634369AF
:107EE00043F001034361012010BD00BF002C01409D
:107EF00000400140B1F5807F30B500F0B58005D875
:107F000001293BD0102973D0002030BDB1F5803F4E
:107F100000F0E580B1F5801F00F00D81B1F5805FC4
:107F2000F2D1036A156823F480530362036A44683C
:107F3000C16921F0807121F4E64141EA052115690A
:107F400023F4005343EA0533556823F4805343EA8E
:107F500005338F4DA84207D005F5A055A84203D0A0
:107F600005F58065A84204D1956924F4804444EA6B
:107F70008514D2684460C161026436E0036A156802
:107F800023F001030362036A4168846924F48034A6
:107F900024F073042C43156923F002032B43556826
:107FA00023F001032B437A4DA84207D005F5A055D5
:107FB000A84203D005F58065A84212D1556923F087
:107FC000080343EA8503956823F0040343EA850325
:107FD000956921F480712943D56921F4007141EA42
:107FE0004501D268416084614263036201208CE7ED
:107FF000036A156823F010030362036A4168846909
:1080000024F0807424F4E64444EA0524156923F03E
:10801000200343EA0513556823F0100343EA0513D0
:108020005B4DA84207D005F5A055A84203D005F541
:108030008065A84213D1556923F0800343EA851374
:10804000956823F0400343EA8513956921F4806124
:1080500041EA8501D56921F4006141EAC501D26890
:10806000416084618263C0E7036A156823F480730A
:108070000362036A4168C46924F4803424F0730401
:108080002C43156923F4007343EA0523556823F450
:10809000807343EA05233E4DA84207D005F5A0555D
:1080A000A84203D005F58065A84213D1556923F491
:1080B000006343EA8523956823F4806343EA8523BC
:1080C000956921F4805141EA0511D56921F40051E7
:1080D00041EA4511D2684160C461C26385E7036A21
:1080E000146823F480330362036A416D21F4803104
:1080F00021F070010C43116923F4003343EA01437A
:10810000516823F4803343EA01432149884207D070
:1081100001F5A051884203D001F58061884206D163
:108120004168956921F4803141EA05214160D268B6
:108130004465826559E7036A146823F48013036277
:10814000036A416D21F0807121F4E04141EA042489
:10815000116923F4001343EA0153516823F4801397
:1081600043EA01530A49884207D001F5A0518842E9
:1081700003D001F58061884206D14168956921F4F8
:10818000802141EA85214160D2684465C2652CE7BF
:10819000002C014084B001A880E80E0004B000204B
:1081A0007047B0F8403043F43F4343F08003A0F8F9
:1081B000403000207047B0F8403023F47E535B0419
:1081C0005B0CA0F84030002070470020704784B05E
:1081D00010B503AC84E80E0000220123A0F8403063
:1081E000BDE81040A0F84020A0F84420A0F850209E
:1081F000B0F8403043F43F4343F08003A0F84030F0
:1082000004B0104670470000F0B50C7830F8242018
:108210000346C87822F4EC4222F0700203284CD8BE
:10822000DFE800F00248464442F4007223F82420BC
:108230000E789E4C35B233F825202240324342F46A
:10824000004242F0800223F825200D7B0A78002DA1
:108250007DD1CE884F7876080825760015FB02324E
:108260006FB3B3F850502A44A2F800640D7833F885
:108270002520560608D533F82520144044F4004440
:1082800044F0C00423F82540CA780C78012A33F85A
:108290002410874A02EA010218BF82F0200242F449
:1082A000004242F0800223F82420F0BD42F4C06274
:1082B0000020BBE742F48062FAE70120B6E7B3F89A
:1082C000504022440C69A2F804640A78B3F8506064
:1082D00015FB0232B6B202F2064254B9945B24F4A2
:1082E0004064A404A40C6FEA44446FEA54449453D9
:1082F00007E03D2C26D86508E40748BF0135AD02EC
:1083000095530C7833F8242052040BD533F82420ED
:1083100022F4E04222F0700242F4404242F0800235
:1083200023F82420097833F8212022F4804222F017
:10833000700282F4405242F4004242F0800223F87C
:108340002120B2E75B4D640945EA8424CFE712B2ED
:1083500033F82250254045F4014545F0800523F8C7
:1083600022500D78B3F85060082212FB05353544D1
:108370000E8926F00106A5F800640E78B3F8505077
:1083800012FB06322A444D8925F00105A2F8045457
:108390000A784D7812B2002D43D133F822506F0481
:1083A00008D533F822502C4044F4404444F0800473
:1083B00023F822400C7833F8242056060BD533F8E6
:1083C000242022F4E04222F0700242F4004242F003
:1083D000C00223F824200C7833F8242022F4E04251
:1083E00022F0700242F4004242F0C00223F824203E
:1083F0000D7833F8252022F4804222F0700248F2F2
:10840000800482F44052224323F82520097833F86F
:10841000212022F4E04222F04002144323F82140BC
:1084200043E733F822506D0408D533F822502C402E
:1084300044F4404444F0800423F822400C7833F89C
:10844000242052060BD533F8242022F4E04222F0F7
:10845000700242F4004242F0C00223F824200C785B
:1084600033F8242022F4E04222F0700242F4404229
:1084700042F0800223F824200C78CA7824B2012A22
:1084800033F824500A4A02EA050218BF82F020029B
:1084900042F4004242F0800223F82420097833F8A5
:1084A000212022F4804222F0700244E78F8FFFFFE8
:1084B000BF8FFFFF0080FFFF10B50C7B4A780B7861
:1084C000BCBBF2B130F8232052060BD530F8232084
:1084D00022F4E04222F0700242F4004242F0C00274
:1084E00020F823200A7830F8223023F4E04323F0E8
:1084F000400343F4004343F0800320F8223000207F
:1085000010BD30F8232054040BD530F8232022F47A
:10851000E04222F0700242F4404242F0800220F831
:1085200023200A7830F8223023F4804323F07003AC
:10853000DFE7002A44D130F8232052040BD530F86D
:10854000232022F4E04222F0700242F4404242F042
:10855000800220F823200A7830F822305C060BD500
:1085600030F8223023F4E04323F0700343F4004357
:1085700043F0C00320F822300A7830F8223023F488
:10858000E04323F0700343F4004343F0C00320F8BA
:1085900022300C7830F8243023F4804323F0700329
:1085A00048F28002134320F82430097830F8213053
:1085B00023F4E04323F040031A4320F821209EE7F0
:1085C00030F8232052040BD530F8232022F4E04267
:1085D00022F0700242F4404242F0800220F8232050
:1085E0000A7830F822305B060BD530F8223023F4BD
:1085F000E04323F0700343F4004343F0C00320F84A
:1086000022300A7830F8223023F4E04323F070035C
:1086100043F4404343F0800320F822300C7830F8D4
:10862000243023F4E04323F0400348F28002134354
:1086300020F82430097830F8213023F4804323F0E7
:108640007003B9E74B780A787BB130F8223023F415
:10865000E04323F0400383F0100343F4004343F06E
:10866000800320F822300020704730F8223023F4B5
:10867000804323F0700383F48053EEE74B780A784D
:1086800003B330F822305B060BD530F8223023F4E8
:10869000E04323F0700343F4004343F0C00320F8A9
:1086A00022300A7830F8223023F4E04323F04003EC
:1086B00083F0300343F4004343F0800320F822307A
:1086C0000020704730F822305B040BD530F82230A0
:1086D00023F4E04323F0700343F4404343F080036A
:1086E00020F822300A7830F8223023F4804323F037
:1086F000700383F44053DDE711B98023A0F84C30B8
:1087000000207047B0F8583043F40043A0F85830C8
:1087100000207047B0F85830C3F30E03A0F858306B
:1087200000207047B0F8440070470020704702F501
:108730008062013302445B0801EB4303521A994201
:1087400000D17047088850520231F8E7F8B5044666
:1087500048788E690A690F7B01280D4659D19642E7
:108760008ABFB11A00211646A961B6B26969EFB98C
:108770003346EA882046FFF7DAFFB4F850102A782B
:1087800004F202430B4423F832602A7834F8223092
:1087900023F4E04323F0400383F0300343F4004329
:1087A00043F0800324F822300020F8BD2B7834F801
:1087B0002300DA00B4F850302344134447064BBF7B
:1087C000A3F80664A3F802646A892A89334620461E
:1087D000FFF7ADFF6A782B786AB91BB234F8232013
:1087E00022F4E04222F0700242F4004242F0C00261
:1087F00024F82320C9E7012AC7D11BB234F823206B
:1088000022F4E04222F0700242F4404242F0800240
:10881000EEE796428CBFB11A0021A96188BF1646C7
:10882000297897B9B4F8500004F20642024402EBEA
:10883000C102AEBB138823F440639B049B0C6FEA18
:1088400043436FEA5343138032E088B9B4F85000D1
:1088500004F20242024402EBC102A6B9118821F4DB
:1088600040618904890C6FEA41416FEA51411180EE
:108870006A7828785ABBB4F8501004F206420A44C9
:1088800002EBC002D5E73D2E05D87108F00748BFBE
:1088900001318902EBE71348710940EA8121E6E7DB
:1088A0003D2E0FD87108F30748BF013189021180AE
:1088B0002A7834F8223023F4804323F0700383F4C1
:1088C00040536BE7074B710943EA8123BBE7012A59
:1088D00001BFB4F8502004F20641891821F8306035
:1088E000E6E700BF0080FFFF02F58062F0B51044AC
:1088F0005D080C462E46471A3A19023436B9DB0792
:1089000044BF30F8153001F81530F0BD128804F876
:10891000022C120A04F8012C013EEDE74FF47A73A1
:10892000B0FBF3F0034B0022013858609A60052237
:108930001A60704710E000E0014B1860704700BFFC
:108940004000002003685B0670B526D4D1E90036EC
:108950003343CE684D6904680A6A33430E69334372
:108960008E692B433343CE6924F47F44334324F090
:10897000BF0413432343036044688B6824F470648A
:1089800043EA154324F004042343B2F5005F436037
:1089900001D18B8C0361012000E0002070BD00003C
:1089A0000146D0E90032007A30B5002800F082801C
:1089B000002B4AD04C7A012C29D060B2F0B1022CA5
:1089C0002FD001208C7A6CB1022C2ED0032C35D004
:1089D000012C37D1404CE56825EA0305E560A56820
:1089E0002B43A360002A4AD04B7A012B48D0002B9E
:1089F0002DD0022B4DD040F0040030E0364C65689D
:108A000025EA0305656025681D432560DAE73248DD
:108A1000046824EA0304046044681C4344600020A2
:108A2000D0E72D4804681C43F5E72B4CA56825EAE0
:108A30000305A560E5682B43E360D3E7264CA568F2
:108A40001D43F6E740F00200CCE71846CAE7224B88
:108A50005C6A24EA02045C621C6A14431C628B7A1E
:108A60006BB1022B19D0032B20D0012B32D11A4B22
:108A7000D96A21EA0201D962996A0A439A6230BD31
:108A8000154B1C6A24EA02041C625C6A14435C6293
:108A9000E5E7114B1C6A1443F6E70F4B996A21EA8C
:108AA00002019962D96A0A43DA62E8E70A4B996AD5
:108AB0001143F6E708490C68DB431C400C604C6826
:108AC00023404B600B6AD24313400B624B6A1A403F
:108AD0004A62D4E70020D2E700040140D0F8943283
:108AE00010B56BB1D0F8904294F84000FF2807D041
:108AF0009B6894F8412021469847FF2384F8403032
:108B0000002010BD38B50546D0F8904200F0D5FAE7
:108B1000D5F89032E06443B1D5F89432606CDB68EC
:108B200004F14C019847002038BD0220FCE7F8B55D
:108B3000D0F89062C6B1142303FB0103DA6982B155
:108B4000D0F8984204EB4114A56BB2FBF5F405FB99
:108B5000142434B9DC612246234600F0A0FA2046F2
:108B6000F8BD00207065FBE70220F9E72DE9F74327
:108B70000A78D0F890724FF0000812F060040546B1
:108B80000E468DF80580ADF8068028D0202C5ED1E9
:108B9000CC884B78E4B1120611D5D0F8942239462E
:108BA000D2F8089018462246C847F2883946284627
:108BB00000F0B2FB4446204603B0BDE8F08387F8DE
:108BC000403087F841402246394600F0BAFBF1E7D1
:108BD000D0F89422184695682246A847EBE74F78CC
:108BE0000B2F34D801A353F827F000BF1D8C0008C9
:108BF0004F8C00084F8C00084F8C00084F8C0008E9
:108C00004F8C0008B78B00084F8C00084F8C000871
:108C10004F8C0008338C0008478C000890F87432A1
:108C2000032B14D102220DF1060100F075FB3C4626
:108C3000C1E790F87432032B09D101220DF105012F
:108C400000F06AFBB7E790F87432032BB3D03146DB
:108C5000284600F08AFD0224ADE700BF38B504467F
:108C60000025822100F0EFF902212564204600F062
:108C7000EAF9C4F86C518321204600F0E4F9D4F8F5
:108C8000903265652BB1D4F894325B689847C4F88C
:108C90009052002038BD000070B5402304460222E7
:108CA000822100F0C6F901250222256411464023E5
:108CB000204600F0BEF9C4F86C510322832108233A
:108CC000204600F0B6F9D4F894326565074DC4F833
:108CD00090521B689847002640236A6C6E650221FB
:108CE0002046AE6500F0E2F9304670BDE82700206E
:108CF000F8B50A4D06460F46002455F8043B23B943
:108D00000134032CF9D10020F8BD1B6839463046E8
:108D100098470028F4D00220F6E700BF442800203E
:108D2000F8B50A4D06460F46002455F8043B23B912
:108D30000134032CF9D10020F8BD5B683946304678
:108D400098470028F4D00220F6E700BF442800200E
:108D50000B792DE9F04106460D4663B9174B1B68A8
:108D60002C7814F0600408D0202C25D1F3B902240B
:108D70002046BDE8F0810023F2E76A78062A04D095
:108D8000F6D30A3A012AF1D9F2E7DFF83080274614
:108D900058F8043B1BB90137032FF9D1E8E79B686A
:108DA0002946304698470028F5D0E0E72946304666
:108DB0009B68BDE8F04118470024D9E7442800200B
:108DC000054B53F82120054B53F822300BB15B695A
:108DD00018470220704700BF704C00204428002034
:108DE000054B53F82120054B53F822300BB19B69FA
:108DF00018470220704700BF304C00204428002054
:108E000070B50A4D0646002455F8043B23B90134D9
:108E1000032CF9D1002070BD1B69002BF7D0304620
:108E200098470028F3D00220F5E700BF442800202F
:108E300029230380004870477C0000200A23038018
:108E400000487047E0000020292303800048704755
:108E50007C00002029230380004870477C0000200C
:108E6000034B0022C3E90122DA601860704700BF9B
:108E700044280020144A936D43F08063936583690E
:108E8000012B01BFA2F58632136843F480231360DF
:108E90000E4BDA68C2F30222C2F10701131D042946
:108EA00028BF0421062B4FF0FF3303FA01F38CBFD8
:108EB000033A0022DB4393401B01054ADBB282F8F0
:108EC00043330823936070470010024000ED00E038
:108ED00000E100E000F58661D0F8700400F026B9EA
:108EE00000EB411310B5D3F83C22D0F870040C46C7
:108EF00000F049F9012C04D12046BDE8104000F0F3
:108F000093BD10BD00EB4113D0F87004DA6B00F094
:108F100072B9D0F8700400F0F3B910B5044601211D
:108F2000D0F8700400F0E9F9D4F87004BDE81040FE
:108F300000F0BCB970477047364A536843F4806309
:108F400010B553600446344A34480823C0E900236E
:108F5000C0F8704400230222C4F89802C0E902233A
:108F6000C0E90423C0E906330362FEF7DDFA18B155
:108F7000FE212B48FDF760FA002211461823D4F891
:108F80009802FEF7A0FE582300228021D4F8980210
:108F9000FEF799FE982300220121D4F89802FEF7EB
:108FA00092FED82300228121D4F89802FEF78BFE8E
:108FB0004FF48C7300220421D4F89802FEF783FE4C
:108FC0004FF4AC7300228621D4F89802FEF77BFEA2
:108FD0004FF4CC7300228521D4F89802FEF773FE7B
:108FE0004FF4EC7300228321D4F89802FEF76BFE55
:108FF0004FF4067300220221D4F89802FEF763FEB4
:109000004FF4167300228221D4F89802FEF75BFE1B
:10901000002010BD0070004000680040B04C0020EF
:10902000053E010808B5D0F89802FEF7EFFA0020D7
:1090300008BD10B51C46D0F8980213462246FEF72C
:109040000EFB002010BD08B5D0F89802FEF73AFBE1
:10905000002008BD08B5D0F89802FEF7CBFD00202F
:1090600008BD08B5D0F89802FEF7FDFD002008BD48
:109070000A06D0F8983245BF01F07F0103EB411397
:1090800003EB411393F82A0058BF93F82A02704764
:1090900008B5D0F89802FEF7CEFA002008BD08B552
:1090A000D0F89802FEF757FB002008BD08B5D0F8AD
:1090B0009802FEF730FB002008BD08B5D0F89802F2
:1090C000FEF742FB08BD08B580B1D0F88C3213B171
:1090D0000023C0F88C3209B1C0F88812012380F84F
:1090E00074320270FFF728FF002008BD0220FCE761
:1090F00019B1C0F88C12002070470220704708B5E3
:10910000FFF790FF002008BD08B5D0F88C320BB9EE
:10911000022008BD1B6898470028FAD0F8E708B578
:10912000D0F88C325B689847002008BD38B50446FB
:1091300000F52075284600F004FB012394F8801206
:10914000C4F86C32B4F88632C4F8703201F01F03F0
:10915000012B0ED03BB1022B10D001F08001204634
:10916000FFF778FF03E02946204600F021F90020B0
:1091700038BD2946204600F037FAF8E72946204650
:1091800000F057FAF3E770B5044616460D4629BBC2
:10919000D0F86C32032B1CD1D0E9533293420BD957
:1091A0009B1A9A42C0F84C318CBF9AB292B23146A7
:1091B00000F0D4F8284670BDD0F88C321B6923B17A
:1091C00090F87422032A00D19847204600F0CEF888
:1091D000F0E7052BEED1FFF73DFFEBE7D0F88C323F
:1091E0009B6933B190F87422032A02D19847002575
:1091F000E0E70225DEE770B5044616460D46002975
:1092000047D1D0F86C32022B3CD1D0E908329342DE
:1092100014D99A1A0262314692B200F08AF82B46AB
:109220002A4629462046FFF741FF94F87832012B61
:1092300002D1002384F87832284670BDC369B3FB9D
:10924000F2F602FB16365EB99A4209D8D0F87022BF
:10925000934205D20A4600F06CF8C4F87052DEE77B
:10926000D4F88C32DB682BB194F87422032A01D134
:109270002046984780212046FFF7ECFE204600F06C
:1092800080F8D2E733F00403CFD18021FFF7E2FE6C
:10929000CBE7D0F88C325B6933B190F87422032AA3
:1092A00002D198470025C7E70225C5E770B500221F
:1092B00004461146012540264023FFF7BAFE3346F7
:1092C0008021C4F84451C4F8506100222046FFF7C1
:1092D000B0FED4F89032A5610021666284F8745221
:1092E000C4F86C126160C4F87C1223B1D4F88C32DB
:1092F00020465B689847002070BD017400207047CD
:1093000008B590F87422032A04D1D0F88C32DB69B6
:1093100003B19847002008BD10B513460222C0F8DB
:109320006C22C0E907330A460021FFF7B8FE00208F
:1093300010BD08B513460A460021FFF7B0FE002015
:1093400008BD10B513460322C0F86C22C0E95233A1
:109350000A460021FFF7AAFE002010BD08B51346FB
:109360000A460021FFF7A2FE002008BD08B504232D
:10937000C0F86C3200231A461946FFF790FE002011
:1093800008BD08B50523C0F86C3200231A461946FB
:10939000FFF78CFE002008BD10B580210446FFF7C2
:1093A00059FE20460021BDE81040FFF753BE0000E3
:1093B00037B50B7803F06003202B04460D4614D01C
:1093C000402B12D0002B40F08E804B78092B00F2FE
:1093D0008A80DFE813F0E300FC008800F5008800D5
:1093E0007D0013008800CE009B00D4F88C32294603
:1093F0009B6820469847002003B030BD4B881A0A6E
:10940000013A062A6FD8DFE802F00416236E6E4395
:109410004C00D0F888321B68207C0DF1060198477B
:10942000BDF80620002A4FD0EB88002B43D1204600
:10943000FFF79CFFDFE7027CD0F88C3232B99B6AE1
:109440000DF10600984702234370E9E7DB6AF7E76E
:10945000DBB2052B47D8DFE803F003070B0F131728
:10946000D0F888325B68D7E7D0F888329B68D3E7BA
:10947000D0F88832DB68CFE7D0F888321B69CBE7B9
:10948000D0F888325B69C7E7D0F888329B69C3E7B8
:10949000037C43BBD0F88C320DF106005B6B984720
:1094A000BEE7037CFBB9D0F88C320DF106001B6BD4
:1094B00098470723C8E79A4228BF1A460146204624
:1094C000ADF80620FFF728FFEB88002B93D1AEE71D
:1094D0008B8843B9CB8833B94D887F2D03D890F85A
:1094E0007432032B03D12046FFF756FF83E7E9B21E
:1094F00080F87612FFF7CCFD2046FFF737FF1DB14D
:10950000022384F8743276E70123FAE78978354D2F
:1095100001292970E7D890F87432022B08D0032B68
:1095200015D0FFF739FF29782046FFF7F8FD62E7ED
:1095300000293FF47CAF01210323416080F874329D
:109540002046FFF7E1FD02287FF471AFCBE731B988
:10955000022380F874324160FFF7E1FD67E741685C
:1095600001293FF464AFC9B2FFF7D9FD29786160E2
:10957000E6E7CA88012AB6D190F87432002BB2D03F
:10958000022B03D9032BAED1011D03E001460023BA
:1095900041F8083F2046FFF7BFFE2CE790F87432F1
:1095A000013B022B9FD8CA88022A9CD1D0F87C327A
:1095B0000146002B14BF1346002341F80C3FE9E796
:1095C0004B88012B7FF417AFC4F87C322FE790F85B
:1095D0007432013B022B86D84B88012B7FF40BAFF2
:1095E0000023F1E75428002038B50B7803F060031E
:1095F000202B04460D4602D0402B00D0ABB994F886
:109600007432013B022B10D82B79012B0DD8D4F8E2
:109610008C3229469B6820469847EB881BB910B9C5
:109620002046FFF7A3FE002038BD2046FFF7B4FE1A
:10963000F9E738B50A7802F06002202A04460B46A2
:1096400015D0402A13D072B95A788D88012AE9B210
:1096500021D0002A36D0032A05D190F87422022A9C
:1096600027D0032A0BD02046FFF796FE05E0D4F85A
:109670008C221946926820469047002038BD5A88AF
:109680002AB94A0603D0DB880BB9FFF7E3FC204672
:10969000FFF76CFEF1E790F87422022A09D0032A42
:1096A000E1D15B88002BE8D14D06F0D0FFF7D9FC63
:1096B000EDE74B06D7D0FFF7CDFC80212046FFF722
:1096C000C9FCDAE790F87432022B18D0032BCAD108
:1096D00001F00F02142315F0800F03FB02021DD0CE
:1096E0009269002ABFD001F07F0505FB03350544D0
:1096F00011F07F031DD12B60022229460AE04A06A1
:10970000B1D12B064CBF00F1140100F5A07100236C
:109710000B6002222046FFF7FFFDAEE7D2F844219E
:10972000002AA0D001F07F0503FB050505F5A07513
:10973000DEE72046FFF79CFC08B10123DBE7286049
:10974000DAE70B7803704B784370CA788B7803EBB9
:10975000022343804A790B7903EB02238380CA7981
:109760008B7903EB0223C380704710B58021044638
:10977000FFF770FC20460021BDE81040FFF76ABCEF
:1097800030B588B1042A0FD900220138551C445D38
:109790005CB9D2B2013252001A8003234B700A70B6
:1097A000022310F8015F15B930BD2A46EEE75A1CB6
:1097B000D2B2CD540233DBB28C54F2E712230B80C9
:1097C000004870471A3E010804230B800048704788
:1097D0005C3E010810B5044C04480B46302221467B
:1097E000FFF7CEFF204610BD24510020353E010872
:1097F00010B5044C04480B4630222146FFF7C0FF49
:10980000204610BD245100202C3E010870B5254A89
:109810008CB00B4607AC02F1100610685168254663
:1098200003C50832B2422C46F7D112782A701E497D
:109830001E4C00228DF81820C87A8DF804001C48B0
:109840000078247820448DF80500487A8DF80600C9
:10985000184800780C7820448DF80700C8798DF8F6
:10986000080089798DF8091003AC01AD204615F880
:10987000011B0CAE06EB111601F00F0116F8146C6B
:1098800026700CAE3144013211F8141C6170062AA6
:1098900004F10204EBD130220749FFF771FF0648BB
:1098A0000CB070BD4B3E01089075FF1F9275FF1FF5
:1098B0009A75FF1F9875FF1F2451002029230380EC
:1098C000004870477C010020D0F8903200201873C7
:1098D000704700000A230380004870477001002091
:1098E00037B50022ADF806200C78CA88D0F890323F
:1098F00002F07F0214F06004CA801ED0202C32D106
:109900004A78023A092A2ED8DFE802F0140B2D2DEE
:109910002D2D2D2D10058A781A600024204603B0C5
:1099200030BD01221946FFF7F7FCF6E74A88120A14
:109930005A60F2E70122191DF5E74D780B2D12D878
:10994000DFE805F006111111111115111111272F62
:1099500090F87432032B06D102220DF10601FFF7B5
:10996000DBFC2C46DAE7FFF700FF0224D6E74B8842
:109970001B0A222B06D1222A0D4928BF2222FFF7DB
:10998000CBFCCBE7212BEED1092A28BF09220949BC
:10999000F5E790F87422032AE5D1012203F10801CA
:1099A000EDE790F87422032ADDD18A789A60B5E752
:1099B000080100206401002010B581210446FFF752
:1099C00042FB01212046FFF73EFB0020E062C4F885
:1099D000580110BD10B54023044603228121FFF732
:1099E00028FB4023032201212046FFF722FB01210F
:1099F000074BE162C4F85811C4F8903200241C737C
:109A0000044A05484023FFF751FB204610BD00BF24
:109A1000952800205528002094490020D0F8903245
:109A2000002018737047000070B5094C402520468F
:109A3000FCF704FD2A460021204608F087FC2B464F
:109A4000224601210348BDE87040FFF72FBB00BF4D
:109A5000552800209449002000207047D0F890320B
:109A6000002058657047002070470000F7B50F7858
:109A7000D0F89062002517F0600403468DF8055079
:109A8000ADF8065016D0202C48D1CA88002A4AD0FA
:109A90003B0603D53146FFF73FFC07E04B7886F8DD
:109AA000403086F841203146FFF74BFC2C462046DB
:109AB00003B0F0BD4D780B2D30D801A252F825F03F
:109AC000F19A00081D9B00081D9B00081D9B0008C3
:109AD0001D9B00081D9B0008AF9A00081D9B0008F5
:109AE0001D9B00081D9B0008019B0008159B00089A
:109AF00090F87422032A11D102220DF10601CAE75F
:109B000090F87422032A09D101220DF10501FFF713
:109B100003FCCCE790F87422032AC8D01846FFF75C
:109B200024FE0224C3E71446C1E700BF38B504464B
:109B300000258621FFF787FA0421C4F890502046BB
:109B4000FFF781FAC4F8945185212046FFF77BFA8C
:109B5000D4F89032E5670BB1C4F89052002038BDBC
:109B600038B50222044640238621FFF762FA012518
:109B70004023022204212046FFF75BFAC4F89050EC
:109B8000C4F894514023032285212046FFF751FA5F
:109B9000074BE567C4F8903200245C65054A9C6574
:109BA000042140230448FFF781FA204638BD00BF56
:109BB000E8280020A52800209449002070B503461D
:109BC000007820F0100010705878507098789070DD
:109BD000D878D0700020107150719071D0711072CF
:109BE00050729072D072107350739073D0730429B6
:109BF000187904D10124D473062947D117E0052927
:109C000019D0441D8C421FD0841D8C4222D10028C3
:109C10003CD00424D4735C18908014F8014C002CC0
:109C200040F0868001259472D572147354730539FF
:109C300081422BD21AE00224D47310B1C2F80A0078
:109C4000E2E70124D472DFE70028DDD00324D473D7
:109C50009080D9E70629D0D90028E8D15C79987995
:109C600000EB042080B2CC1F844202D24FF4CE40DD
:109C700070BD07291AD11224D4730124947358B1EA
:109C8000C2F80A0000F10A048C422BD0D17B0029D3
:109C900040D146F68510EBE79072D0721473507382
:109CA0001324D47301249473908002E0C41D8C4269
:109CB000F6D000F109048C42E4D11424D4730125B8
:109CC0005C189573908014F8026C14F8014C14EB36
:109CD000062411BFC2F80A409472D472157308BFEB
:109CE0005473CFE7194411F8034C002CCED124242F
:109CF000D47301249473908011F8020C11F8011CA4
:109D000011EB002111BFC2F80A109172D1721473C5
:109D100008BF517390880028AAD0907B20B10733E8
:109D2000C2F806300020A3E70533C2F806309FE7EB
:109D3000C2F80A407BE770B50D4688B000210646A0
:109D4000144608466A4603F00DFD202106F1100076
:109D500003F0FAFC2846202103F0F6FC00216A46B5
:109D6000084603F02FFD04AD6B4622461C4603CC8B
:109D7000AC4210605160234602F10802F6D108B0EF
:109D800070BD00000C4B70B51C6841F2020604F572
:109D90008052A35B12880D465918914202DD0120C2
:109DA00008F054FA2A460146E01808F0B5FAA35B19
:109DB0001D44A553002070BD44290020014B1868A4
:109DC00002F012B94429002070B504460E46103046
:109DD00020211546FCF798FA224631462046FFF727
:109DE000AAFF204605F120032A46302103F0E0FDBA
:109DF000002070BD70B5ADF59C6D4FF480630446D6
:109E0000ADF80430FCF768FBB0F5806F054603D968
:109E100030480DF59C6D70BD40F2EE20FCF726FA3F
:109E2000002854D004F1200616AA31460AA8FFF7EC
:109E3000CBFF0130ECD003F06BFC012101A803F053
:109E400083FC3046202103F07FFC2021204603F0D4
:109E50007BFC30210AA803F077FC01210DF10500FD
:109E600003F072FC402116A803F06EFC02A803F078
:109E700073FC03F0F1FC2246202102A803F0FAFC57
:109E80000523022101A88DF80430FFF77BFF402154
:109E900016A8FFF777FF3026012101A88DF804608E
:109EA000FFF770FF31460AA8FFF76CFF38A8FCF7F0
:109EB00019FB294638A8FFF765FF26A9204601F0BF
:109EC00033FA81B226A8FFF75DFF0348A1E746F603
:109ED00085109EE71092FFFF0090FFFF30B54629E6
:109EE00085B00446154617D120222946223008F0B5
:109EF000F7F9C0B96B46D4F8422004F110012846A6
:109F000001F0ECF810226946204608F0E9F9B0FAB1
:109F100080F0400905B030BD302904D16A46294699
:109F2000FFF709FFEEE70020F4E7000007B5084B54
:109F300018689A8800909B79ADF80420062168463D
:109F40008DF80630FFF71EFF024803B05DF804FBF2
:109F5000F33D01080090FFFF2DE9F04107469CB05A
:109F600018461C460D469046654E02F03DF83B787B
:109F70003460002B40F0BE8042462946384603F04C
:109F8000AFFE84B2B4F5104F0ED046F685139C4256
:109F90000AD07B78032B00F0A1801CD8012B24D0A1
:109FA000022B2AD04FF4DA440020FBF7B9FEB4F5B7
:109FB000104F40F0A180230A01210AA88DF8283013
:109FC000FFF7E0FE01210AA88DF82840FFF7DAFE2E
:109FD0001CB0BDE8F081C02B00F08680FF2B0CBFC9
:109FE0004FF410444FF4DA44DEE7B8F1400F7ED16D
:109FF0002846FFF7FFFE84B2D6E7BC780123072C82
:10A000008DF807300FD105F1200295F8401005F1C9
:10A010004100FFF763FF18B146F68514A4B2C3E709
:10A020004FF4D544FAE7032C01D0082CF8D105F100
:10A03000410805F120073A4695F840104046FFF7E1
:10A040004DFF0028ECD000231A4695F840104046FA
:10A0500003F09CFC082C36D100238DF8073000203B
:10A06000FCF770F804BA029403F052FB2021384642
:10A0700003F06AFB01210DF1070003F065FB0421E9
:10A0800002A803F061FB2021284603F05DFB02A833
:10A0900003F062FB2A46202102A803F0EBFB01211A
:10A0A0000DF10700FFF76EFE042102A80294FFF7EE
:10A0B00069FE0AA9284601F037F981B20AA8FFF71C
:10A0C00061FE104CAAE79DF80730002BC7D040F284
:10A0D000EE20FCF7CBF800289ED0C0E7B8F1000FC7
:10A0E00005D1FFF723FF86E74FF410445CE74FF4F8
:10A0F000CE4459E74FF4DC44306801F075FF5AE76D
:10A10000442900200090FFFFF8B50D4616461F4673
:10A11000044668B10120FBF773FD20463B463246FA
:10A120002946FFF719FF0020BDE8F840FBF768BD9E
:10A13000F8BD30B4027943798579120442EA0322EA
:10A140002A430B4630BCC11DFFF706BF094A30B594
:10A150000023182404FB03F18D58854203D10A44DF
:10A160000020107430BD0133092BF3D14FF0FF30C4
:10A17000F8E700BF48290020044A00231380044A5E
:10A180001360044A1360044A13607047F2470020CA
:10A19000FC47002000480020F4470020044B1888AA
:10A1A00028B1044B1B6898420CBF02200120704765
:10A1B000F2470020FC4700200C4A38B51146002326
:10A1C000147C5CB918225343CD18C85001232B745A
:10A1D000FBF722FDC5E90204204638BD0133092BF7
:10A1E00002F11802ECD14FF0FF30F6E748290020C9
:10A1F00038B50C4C0022182303FB02F52959814283
:10A2000009D1FBF709FD631900220121C3E902020C
:10A210001974104638BD0132092AEDD14FF0FF30D4
:10A22000F8E700BF482900202DE9F04704460F4613
:10A23000164600254FF004084FF005094FF0070AB5
:10A24000B54201DBBDE8F087D4E9032362B9626857
:10A25000C4F81520C4F80C80C3B92278627622892C
:10A26000C4F80CA052BA6283E068421CE260204449
:10A27000795D41750133402A236105D104F1150050
:10A28000FBF7BAFE0023E3600135D9E7227D627651
:10A29000511C2175C4F80C90E6E7C36810B55BB992
:10A2A00003694BB94368C0F81530037843760389D6
:10A2B0005BBA43830723C360C368002B0CDD00F146
:10A2C0001504E018C3F14002002108F03FF82046D1
:10A2D000BDE81040FBF790BE10BD10B598B0044625
:10A2E0008DF807105822002102A808F02FF8BF238C
:10A2F00001220DF1070102A88DF80830ADF81020F9
:10A300000394FFF791FF02A8FFF7C7FF18B010BD35
:10A31000FFF732BF2DE9F04DDFF85C80154D0024CA
:10A3200040F2ED2A4FF0000B98F81030D3B1FBF754
:10A3300073FCD8E902320021C61A61EB0207BB4563
:10A3400008BFB2450ED20521D8F80000FFF7C5FFBF
:10A35000002388F81030D8F800202B689A4201D1E9
:10A36000FFF70AFF01340A2C08F11808DCD1BDE818
:10A37000F08D00BFF44700204829002000B599B0B7
:10A3800058228DF80700002102A807F0DFFF0A4BD2
:10A390001B6803930122BB230DF1070102A88DF86E
:10A3A0000830ADF81020FFF73FFF02A8FFF775FF58
:10A3B00019B05DF804FB00BFF4470020F8B514465F
:10A3C000084601F011FE2378D12B18D005D8992B1F
:10A3D0004FF0000531D00020F8BDE02B18D0E12B64
:10A3E000F9D1184E04272781032301253370757096
:10A3F000B370FBF7F5FC3A46F070314617E0FBF717
:10A40000E7FF002323812046FFF747FF0120E3E712
:10A410000C4B1B787BB1238122890A48002107F06D
:10A4200095FF21890748FBF76FFF228905492046E0
:10A43000FFF7FAFEE7E73923EDE7FBF7DFFC2581BD
:10A44000E1E700BF382A00202DE9F04702790668CD
:10A45000862AADF5815D054659D1B0F80530B3F5D2
:10A46000006F03D0002403250327C9E0002E00F06D
:10A47000E080FFF74DFF0768781C12D1AF4B1C68D6
:10A480000134621E033204F1010108D820461C6029
:10A49000FFF792FE013014D100240625E4E70C46B4
:10A4A000EFE7A74A0023182101FB03F080588742F9
:10A4B00000F08A810133092BF6D13846FFF77CFE84
:10A4C00085E15822002107A807F040FF55F8070F43
:10A4D0000897862369688DF81C3002AB019303C38B
:10A4E000019B01999C6002231122CB6007A80523E0
:10A4F000ADF824200B74FFF797FE07A8FFF7CDFEF9
:10A500002046FFF723FE00242546042778E0711C2F
:10A5100000F08F808A49002318200C4600FB03F7C7
:10A520007F58BE420AD00133092BF7D1130605D557
:10A53000FFF734FE10B93046FFF73EFE29680023CE
:10A54000182202FB03F02058814200F042810133BF
:10A55000092BF6D195F90430002BD4DA9CE7002BB7
:10A5600022DAB5F805305BBA9AB241F6B954A24284
:10A570003FF678AF734C2380734B1860734B74486D
:10A580001960392A734B28BF39221A60724B4FF079
:10A59000FF311960E91D07F0BFFE2868FFF728FEAC
:10A5A00038B3012007F052FE002CADD0674B1B687A
:10A5B0009942A8D1634B684AB3F800801368654F8D
:10A5C000013383423C68136040F01381A8EB04021E
:10A5D0005F483B2A204405F1050104DC07F09CFE9E
:10A5E000C7F80080D9E73B223B3407F095FE3C607A
:10A5F000D3E7544B1C88544B1D78FFF7CFFD07461B
:10A60000564B58220021184607F0A0FE042F466042
:10A610000570804614D0032F0ED13046FFF796FD0B
:10A62000042D01D1FFF7A8FD29463046FFF755FE5E
:10A6300006E000240B2517E7012F03D1FBF7ECFA06
:10A6400000253BE0A5F18103102B00F2AE8001A2B2
:10A6500052F823F099A60008ABA7000865A70008E8
:10A66000ABA70008ABA70008A3A50008ABA700088C
:10A67000C7A60008ABA70008ABA70008ABA7000857
:10A68000ABA70008ABA70008ABA70008ABA7000862
:10A69000CDA60008B7A70008048122462C492F4800
:10A6A000FFF7C2FD2D48FFF7F8FD3046FFF74EFDDE
:10A6B000FFF762FD2A4B1B78002BC1D128460DF510
:10A6C000815DBDE8F087FBF7A7FCEBE70CB9032140
:10A6D000ABE7234F97F80090B9F1000F01D00621A6
:10A6E000A3E74FF0010A07A887F800A001F07CFC5F
:10A6F00007AA2146164801F0A9FF0DF580531E3325
:10A7000002901B881548C8F804605344A8F8083024
:10A710005246902302A988F80030FFF785FD0DF519
:10A7200080531E3307A91A880C48FFF77DFD0B489C
:10A73000FFF7B3FD87F80090B7E700BFE001002006
:10A7400048290020F2470020F8470020F447002065
:10A75000382A0020FC47002000480020084800203C
:10A7600004480020002CB2D0234C2778002FB6D10B
:10A77000012307A80DF12009237001F035FC07A97A
:10A780001E48FFF7D6FCB9F8FE2F1D48A8F8082090
:10A79000832307A988F80030C8F80460FFF744FD58
:10A7A0001748FFF77AFD27707FE7154A07A920466B
:10A7B000FFF704FE18B1104B00221A7075E7012153
:10A7C0003046FFF78AFD70E73846FFF711FD3C463B
:10A7D00060E6FFF7E3FC04462879012C43B27FF4DE
:10A7E000BEAE084A126891427FF4B6AE002BBFF6A7
:10A7F000DDAE0024042537E604480020382A002076
:10A8000008480020F4470020D1F84330D0F8430036
:10A81000181A7047F8B5202206460D46223022311C
:10A8200007F05EFD044680B996F8867005F1460192
:10A830003A4606F1460007F053FD20B995F88640E8
:10A84000E31B5C425C412046F8BD0024FBE738B5C1
:10A85000054608460C4608F02FFA214602462846CF
:10A86000BDE8384007F0B5B808B50220FBF758FA44
:10A8700047F24810FBF7FAFC012805DC06D0002857
:10A8800014BF2D203A2008BD2120FCE70020FAE764
:10A8900020210148FBF738BD6048002010B5044670
:10A8A0000020FBF74FFC034610B9FBF74BFC0346B7
:10A8B0001A0E84F821201A0C84F822201A0A84F82F
:10A8C000232084F82430184610BD00002DE9F04301
:10A8D0000678022EB1B004468846154640F0AA809C
:10A8E00008AA7149683002F0E1FF02F011FF20214F
:10A8F0000DEB010002F028FF08A802F02DFF202137
:10A9000010AA0DEB010004F1050902F02BFF2179DB
:10A91000484602F019FF20210DEB010010AA02F0B9
:10A9200051FF102210A904F1450007F0D9FC074699
:10A93000002840F0B68018AA0146304602F012FF07
:10A940004621D4F8B00002F0FFFE18AA394630467E
:10A9500002F038FF394608A802F0B6FF21794846D0
:10A9600002F0D8FF20AA202118A802F0FBFE202127
:10A97000484602F0E9FE20AA202118A802F022FF92
:10A980002379402B0ED128AA202118A802F0EAFE34
:10A99000202104F1250002F0D7FE28AA202118A8C2
:10A9A00002F010FF002108A802F08EFF217920A8F4
:10A9B00002F0B8FF00232A684146684606F0B8FF57
:10A9C000012204A9684607F01DF8384A064640F2FD
:10A9D000831101F089FF002E5ED1354904A8FFF7ED
:10A9E00036FF324A06464FF4C37101F07DFF002E58
:10A9F00052D1227920A904A806F0D6FF2B4A04469A
:10AA000040F2891101F070FF002C45D104A968467D
:10AA100007F00AF8254A04464FF4C67101F064FFB6
:10AA2000002C39D10099A1EB08012960204631B0F2
:10AA3000BDE8F083012E31D100231268684606F08C
:10AA400077FF324620A9684606F0DCFF174A044625
:10AA50004FF4CB7101F048FFF4B9154920A8FFF776
:10AA6000F6FE124A044640F2991101F03DFF9CB9EE
:10AA7000152120A806F083FF0C4A04464FF4CE713E
:10AA800001F032FF44B920A9684606F0CDFF074A1D
:10AA9000044640F29F11C1E71024C7E70024146068
:10AAA000C4E7E024C2E700BF60480020BA3E0108C6
:10AAB000CD3E010838B5114CD022FF21204607F0C9
:10AAC00045FC802104F14E00FBF71EFC082384F8AE
:10AAD0004830A523238001250023A4F84A3084F8B8
